{
  "contractName": "ItemManager",
  "abi": [
    {
      "anonymous": false,
      "inputs": [
        {
          "indexed": false,
          "internalType": "uint256",
          "name": "_itemIndex",
          "type": "uint256"
        },
        {
          "indexed": false,
          "internalType": "uint256",
          "name": "_step",
          "type": "uint256"
        }
      ],
      "name": "SupplyChainStep",
      "type": "event"
    },
    {
      "inputs": [],
      "name": "isOwner",
      "outputs": [
        {
          "internalType": "bool",
          "name": "",
          "type": "bool"
        }
      ],
      "stateMutability": "view",
      "type": "function",
      "constant": true
    },
    {
      "inputs": [
        {
          "internalType": "uint256",
          "name": "",
          "type": "uint256"
        }
      ],
      "name": "items",
      "outputs": [
        {
          "internalType": "contract Item",
          "name": "_item",
          "type": "address"
        },
        {
          "internalType": "string",
          "name": "_identifier",
          "type": "string"
        },
        {
          "internalType": "uint256",
          "name": "_itemPrice",
          "type": "uint256"
        },
        {
          "internalType": "enum ItemManager.SupplyChainState",
          "name": "_state",
          "type": "uint8"
        }
      ],
      "stateMutability": "view",
      "type": "function",
      "constant": true
    },
    {
      "inputs": [
        {
          "internalType": "string",
          "name": "_identifier",
          "type": "string"
        },
        {
          "internalType": "uint256",
          "name": "_itemPrice",
          "type": "uint256"
        }
      ],
      "name": "createItem",
      "outputs": [],
      "stateMutability": "nonpayable",
      "type": "function"
    },
    {
      "inputs": [
        {
          "internalType": "uint256",
          "name": "_itemIndex",
          "type": "uint256"
        }
      ],
      "name": "triggerPayment",
      "outputs": [],
      "stateMutability": "payable",
      "type": "function",
      "payable": true
    },
    {
      "inputs": [
        {
          "internalType": "uint256",
          "name": "_itemIndex",
          "type": "uint256"
        }
      ],
      "name": "triggerDelivery",
      "outputs": [],
      "stateMutability": "nonpayable",
      "type": "function"
    }
  ],
  "bytecode": "0x6080604052336000806101000a81548173ffffffffffffffffffffffffffffffffffffffff021916908373ffffffffffffffffffffffffffffffffffffffff160217905550610fcb806100536000396000f3fe60806040526004361061004a5760003560e01c8063800fb83f1461004f5780638c5517421461007d5780638f32d59b1461014f578063bfb231d21461017e578063cd31831e14610281575b600080fd5b61007b6004803603602081101561006557600080fd5b81019080803590602001909291905050506102bc565b005b34801561008957600080fd5b5061014d600480360360408110156100a057600080fd5b81019080803590602001906401000000008111156100bd57600080fd5b8201836020820111156100cf57600080fd5b803590602001918460018302840111640100000000831117156100f157600080fd5b91908080601f016020809104026020016040519081016040528093929190818152602001838380828437600081840152601f19601f82011690508083019250505050505050919291929080359060200190929190505050610467565b005b34801561015b57600080fd5b506101646106ba565b604051808215151515815260200191505060405180910390f35b34801561018a57600080fd5b506101b7600480360360208110156101a157600080fd5b8101908080359060200190929190505050610711565b604051808573ffffffffffffffffffffffffffffffffffffffff1673ffffffffffffffffffffffffffffffffffffffff1681526020018060200184815260200183600281111561020357fe5b60ff168152602001828103825285818151815260200191508051906020019080838360005b83811015610243578082015181840152602081019050610228565b50505050905090810190601f1680156102705780820380516001836020036101000a031916815260200191505b509550505050505060405180910390f35b34801561028d57600080fd5b506102ba600480360360208110156102a457600080fd5b8101908080359060200190929190505050610806565b005b3460016000838152602001908152602001600020600201541461032a576040517f08c379a0000000000000000000000000000000000000000000000000000000008152600401808060200182810382526033815260200180610f266033913960400191505060405180910390fd5b6000600281111561033757fe5b6001600083815260200190815260200160002060030160009054906101000a900460ff16600281111561036657fe5b146103bc576040517f08c379a000000000000000000000000000000000000000000000000000000000815260040180806020018281038252603d815260200180610f59603d913960400191505060405180910390fd5b600180600083815260200190815260200160002060030160006101000a81548160ff021916908360028111156103ee57fe5b02179055507f8c198761ba3d324d155cbaf96f0ac38a531c085089e49106d95352535a1110c260025460016000600254815260200190815260200160002060030160009054906101000a900460ff16600281111561044857fe5b604051808381526020018281526020019250505060405180910390a150565b61046f6106ba565b6104e1576040517f08c379a00000000000000000000000000000000000000000000000000000000081526004018080602001828103825260168152602001807f596f7520617265206e6f7420746865206f776e65722e0000000000000000000081525060200191505060405180910390fd5b600030826002546040516104f4906109be565b808473ffffffffffffffffffffffffffffffffffffffff1673ffffffffffffffffffffffffffffffffffffffff1681526020018381526020018281526020019350505050604051809103906000f080158015610554573d6000803e3d6000fd5b5090508060016000600254815260200190815260200160002060000160006101000a81548173ffffffffffffffffffffffffffffffffffffffff021916908373ffffffffffffffffffffffffffffffffffffffff1602179055508260016000600254815260200190815260200160002060010190805190602001906105da9291906109cb565b508160016000600254815260200190815260200160002060020181905550600060016000600254815260200190815260200160002060030160006101000a81548160ff0219169083600281111561062d57fe5b02179055507f8c198761ba3d324d155cbaf96f0ac38a531c085089e49106d95352535a1110c260025460016000600254815260200190815260200160002060030160009054906101000a900460ff16600281111561068757fe5b604051808381526020018281526020019250505060405180910390a1600260008154809291906001019190505550505050565b60008060009054906101000a900473ffffffffffffffffffffffffffffffffffffffff1673ffffffffffffffffffffffffffffffffffffffff163373ffffffffffffffffffffffffffffffffffffffff1614905090565b60016020528060005260406000206000915090508060000160009054906101000a900473ffffffffffffffffffffffffffffffffffffffff1690806001018054600181600116156101000203166002900480601f0160208091040260200160405190810160405280929190818152602001828054600181600116156101000203166002900480156107e35780601f106107b8576101008083540402835291602001916107e3565b820191906000526020600020905b8154815290600101906020018083116107c657829003601f168201915b5050505050908060020154908060030160009054906101000a900460ff16905084565b61080e6106ba565b610880576040517f08c379a00000000000000000000000000000000000000000000000000000000081526004018080602001828103825260168152602001807f596f7520617265206e6f7420746865206f776e65722e0000000000000000000081525060200191505060405180910390fd5b6001600281111561088d57fe5b6001600083815260200190815260200160002060030160009054906101000a900460ff1660028111156108bc57fe5b14610912576040517f08c379a000000000000000000000000000000000000000000000000000000000815260040180806020018281038252603d815260200180610f59603d913960400191505060405180910390fd5b60026001600083815260200190815260200160002060030160006101000a81548160ff0219169083600281111561094557fe5b02179055507f8c198761ba3d324d155cbaf96f0ac38a531c085089e49106d95352535a1110c260025460016000600254815260200190815260200160002060030160009054906101000a900460ff16600281111561099f57fe5b604051808381526020018281526020019250505060405180910390a150565b6104b580610a7183390190565b828054600181600116156101000203166002900490600052602060002090601f016020900481019282601f10610a0c57805160ff1916838001178555610a3a565b82800160010185558215610a3a579182015b82811115610a39578251825591602001919060010190610a1e565b5b509050610a479190610a4b565b5090565b610a6d91905b80821115610a69576000816000905550600101610a51565b5090565b9056fe608060405234801561001057600080fd5b506040516104b53803806104b58339818101604052606081101561003357600080fd5b8101908080519060200190929190805190602001909291908051906020019092919050505082600360006101000a81548173ffffffffffffffffffffffffffffffffffffffff021916908373ffffffffffffffffffffffffffffffffffffffff16021790555081600081905550806002819055505050506103fc806100b96000396000f3fe6080604052600436106100385760003560e01c80632986c0e5146103045780633c8da5881461032f57806389794d001461035a576102ff565b366102ff576000600154146100b5576040517f08c379a00000000000000000000000000000000000000000000000000000000081526004018080602001828103825260158152602001807f4974656d206973207061696420616c72656164792e000000000000000000000081525060200191505060405180910390fd5b346000541461012c576040517f08c379a000000000000000000000000000000000000000000000000000000000815260040180806020018281038252601b8152602001807f4f6e6c792066756c6c207061796d656e747320616c6c6f7765642e000000000081525060200191505060405180910390fd5b346001600082825401925050819055506000600360009054906101000a900473ffffffffffffffffffffffffffffffffffffffff1673ffffffffffffffffffffffffffffffffffffffff1634600254604051602401808281526020019150506040516020818303038152906040527f800fb83f000000000000000000000000000000000000000000000000000000007bffffffffffffffffffffffffffffffffffffffffffffffffffffffff19166020820180517bffffffffffffffffffffffffffffffffffffffffffffffffffffffff83818316178352505050506040518082805190602001908083835b6020831061023b5780518252602082019150602081019050602083039250610218565b6001836020036101000a03801982511681845116808217855250505050505090500191505060006040518083038185875af1925050503d806000811461029d576040519150601f19603f3d011682016040523d82523d6000602084013e6102a2565b606091505b50509050806102fc576040517f08c379a000000000000000000000000000000000000000000000000000000000815260040180806020018281038252602f815260200180610398602f913960400191505060405180910390fd5b50005b600080fd5b34801561031057600080fd5b50610319610385565b6040518082815260200191505060405180910390f35b34801561033b57600080fd5b5061034461038b565b6040518082815260200191505060405180910390f35b34801561036657600080fd5b5061036f610391565b6040518082815260200191505060405180910390f35b60025481565b60005481565b6001548156fe546865207472616e73616374696f6e207761736e2774207375636365737366756c6c6d2c2063616e63656c696e672ea2646970667358221220bbb9abfe0342ae69dacc0fadeb18fed2b6bbaf57d533f13050f9647802e1c5db64736f6c634300060100334f6e6c792066756c6c207061796d656e74732061636365707465642c206974656d20707269636520697320696e76616c69642e4d6967687420626520656c7365776865726520696e2074686520737570706c7920636861696e2c206974656d20776173206e6f7420637265617465642ea264697066735822122064680d6c61f6ac1277d7d1f2377c35b35611032839d79e1a5a142a4acedf162764736f6c63430006010033",
  "source": "pragma solidity ^0.6.0;\n\nimport \"./Ownable.sol\";\nimport \"./Item.sol\";\n\ncontract ItemManager is Ownable {\n\n    enum SupplyChainState{ Created, Paid, Delivered }\n    \n    struct S_item {\n        Item _item;\n        string _identifier;\n        uint _itemPrice;\n        ItemManager.SupplyChainState _state;\n    }\n\n    mapping(uint => S_item) public items;\n    uint itemIndex;\n\n    \n\n    event SupplyChainStep(uint _itemIndex, uint _step);\n\n    function createItem (string memory _identifier, uint _itemPrice) public onlyOwner { \n        Item item = new Item(this, _itemPrice, itemIndex);\n        items[itemIndex]._item = item;\n        items[itemIndex]._identifier = _identifier;\n        items[itemIndex]._itemPrice = _itemPrice;\n        items[itemIndex]._state = SupplyChainState.Created;\n        emit SupplyChainStep(itemIndex, uint(items[itemIndex]._state));\n        itemIndex++;\n    }\n\n    function triggerPayment(uint _itemIndex) public payable {\n        require(items[_itemIndex]._itemPrice == msg.value,\"Only full payments accepted, item price is invalid.\");\n        require(items[_itemIndex]._state == SupplyChainState.Created, \"Might be elsewhere in the supply chain, item was not created.\");\n        items[_itemIndex]._state = SupplyChainState.Paid;\n\n        emit SupplyChainStep(itemIndex, uint(items[itemIndex]._state));\n    }\n\n    function triggerDelivery(uint _itemIndex) public onlyOwner {\n        require(items[_itemIndex]._state == SupplyChainState.Paid, \"Might be elsewhere in the supply chain, item was not created.\");\n        items[_itemIndex]._state = SupplyChainState.Delivered;\n        \n        emit SupplyChainStep(itemIndex, uint(items[itemIndex]._state));\n    }\n}",
  "sourcePath": "C:\\Users\\Dean\\Desktop\\My Repsitory\\supply-chain\\contracts\\ItemManager.sol",
  "compiler": {
    "name": "solc",
    "version": "0.6.1+commit.e6f7d5a4.Emscripten.clang"
  },
  "schemaVersion": "3.4.6",
  "updatedAt": "2022-03-13T21:48:01.818Z",
  "networkType": "ethereum",
  "devdoc": {
    "methods": {}
  },
  "userdoc": {
    "methods": {}
  }
}