{
  "contractName": "Ownable",
  "abi": [
    {
      "inputs": [],
      "stateMutability": "nonpayable",
      "type": "constructor"
    },
    {
      "inputs": [],
      "name": "isOwner",
      "outputs": [
        {
          "internalType": "bool",
          "name": "",
          "type": "bool"
        }
      ],
      "stateMutability": "view",
      "type": "function"
    }
  ],
  "bytecode": "0x6080604052348015600f57600080fd5b50336000806101000a81548173ffffffffffffffffffffffffffffffffffffffff021916908373ffffffffffffffffffffffffffffffffffffffff16021790555060da8061005e6000396000f3fe6080604052348015600f57600080fd5b506004361060285760003560e01c80638f32d59b14602d575b600080fd5b6033604d565b604051808215151515815260200191505060405180910390f35b60008060009054906101000a900473ffffffffffffffffffffffffffffffffffffffff1673ffffffffffffffffffffffffffffffffffffffff163373ffffffffffffffffffffffffffffffffffffffff161490509056fea2646970667358221220b0435f3f3e9da9543908ce150b7fb7de0ec56c3cc4c15a3e2c12a51f1d19689d64736f6c63430006010033",
  "source": "pragma solidity ^0.6.0;\n\ncontract Ownable {\n    address payable _owner;\n\n    constructor () public {\n        _owner = msg.sender;\n    }\n\n    modifier onlyOwner() {\n        require(isOwner(),\"You are not the owner.\");\n        _;\n    }\n\n    function isOwner() public view returns (bool) {\n        return(msg.sender == _owner);\n    }\n}",
  "sourcePath": "C:\\Users\\Dean\\Desktop\\My Repsitory\\supply-chain\\contracts\\Ownable.sol",
  "compiler": {
    "name": "solc",
    "version": "0.6.1+commit.e6f7d5a4.Emscripten.clang"
  },
  "schemaVersion": "3.4.6",
  "updatedAt": "2022-03-13T21:47:56.210Z",
  "devdoc": {
    "methods": {}
  },
  "userdoc": {
    "methods": {}
  }
}